:0300000002088271
:0C088200787FE4F6D8FD75810702087548
:0D08750012083B1208597F0112088E80FE08
:06088E00EF24FF92B722E7
:10083B009000027403F0A37407F0A37401F0E4902A
:0E084B000000F0A3F07B017A007900020003A8
:100859009000027404F0A37401F0E4A3F090000086
:0C086900F0A3F07B017A0079000200038C
:1000030090000212080EB4080040030207F49000A7
:1000130018F8282873020030020128020220020384
:10002300180204100205080206000206F8900004F4
:1000330012080E14602214603914604D240370609A
:1000430090000312080EFFF87401088002C333D82E
:10005300FCF452945293804890000312080EFFF868
:100063007401088002C333D8FCFF4294EFF4529327
:10007300802E90000312080EFFF87401088002C35B
:1000830033D8FCFFF45294801490000312080EFF3F
:10009300F87401088002C333D8FCFF4294EF429303
:1000A3001207F5701D90FE20C083C082E0FF900010
:1000B3000312080EFEF87401088002C333D8FC4F04
:1000C300801C90FE20C083C082E0FF9000031208D2
:1000D3000EFEF87401088002C333D8FCF45FD082AB
:1000E300D083F090000112080E701D90FE28C0838B
:1000F300C082E0FF90000312080EFEF8740108802E
:1001030002C333D8FC0207D090FE28C083C082E02C
:10011300FF90000312080EFEF87401088002C33337
:10012300D8FC0207ED90000412080E14602214603C
:100133003914604D2403706090000312080EFFF819
:100143007401088002C333D8FCF452925291804860
:1001530090000312080EFFF87401088002C333D81D
:10016300FCFF4292EFF45291802E90000312080E8E
:10017300FFF87401088002C333D8FCFFF452928065
:100183001490000312080EFFF87401088002C333B1
:10019300D8FCFF4292EF42911207F5701D90FE21A9
:1001A300C083C082E0FF90000312080EFEF87401C2
:1001B300088002C333D8FC4F801C90FE21C083C04B
:1001C30082E0FF90000312080EFEF874010880021B
:1001D300C333D8FCF45FD082D083F09000011208BF
:1001E3000E701D90FE29C083C082E0FF90000312B1
:1001F300080EFEF87401088002C333D8FC0207D04E
:1002030090FE29C083C082E0FF90000312080EFE17
:10021300F87401088002C333D8FC0207ED90000490
:1002230012080E14602214603914604D24037060A8
:1002330090000312080EFFF87401088002C333D83C
:10024300FCF452965295804890000312080EFFF872
:100253007401088002C333D8FCFF4296EFF4529531
:10026300802E90000312080EFFF87401088002C369
:1002730033D8FCFFF45296801490000312080EFF4B
:10028300F87401088002C333D8FCFF4296EF42950D
:100293001207F5701D90FE22C083C082E0FF90001C
:1002A3000312080EFEF87401088002C333D8FC4F12
:1002B300801C90FE22C083C082E0FF9000031208DE
:1002C3000EFEF87401088002C333D8FCF45FD082B9
:1002D300D083F090000112080E701D90FE2AC08397
:1002E300C082E0FF90000312080EFEF8740108803C
:1002F30002C333D8FC0207D090FE2AC083C082E039
:10030300FF90000312080EFEF87401088002C33345
:10031300D8FC0207ED90000412080E14602214604A
:100323003914604D2403706090000312080EFFF827
:100333007401088002C333D8FCF452B252B180482E
:1003430090000312080EFFF87401088002C333D82B
:10035300FCFF42B2EFF452B1802E90000312080E5C
:10036300FFF87401088002C333D8FCFFF452B28053
:100373001490000312080EFFF87401088002C333BF
:10038300D8FCFF42B2EF42B11207F5701D90FE2375
:10039300C083C082E0FF90000312080EFEF87401D0
:1003A300088002C333D8FC4F801C90FE23C083C057
:1003B30082E0FF90000312080EFEF8740108800229
:1003C300C333D8FCF45FD082D083F09000011208CD
:1003D3000E701D90FE2BC083C082E0FF90000312BD
:1003E300080EFEF87401088002C333D8FC0207D05C
:1003F30090FE2BC083C082E0FF90000312080EFE24
:10040300F87401088002C333D8FC0207ED9000049E
:1004130012080E14602214603914604D24037060B6
:1004230090000312080EFFF87401088002C333D84A
:10043300FCF452B452B3804890000312080EFFF844
:100443007401088002C333D8FCFF42B4EFF452B303
:10045300802E90000312080EFFF87401088002C377
:1004630033D8FCFFF452B4801490000312080EFF3B
:10047300F87401088002C333D8FCFF42B4EF42B3DF
:100483001207F5701D90FE24C083C082E0FF900028
:100493000312080EFEF87401088002C333D8FC4F20
:1004A300801C90FE24C083C082E0FF9000031208EA
:1004B3000EFEF87401088002C333D8FCF45FD082C7
:1004C300D083F090000112080E701D90FE2CC083A3
:1004D300C082E0FF90000312080EFEF8740108804A
:1004E30002C333D8FC0207D090FE2CC083C082E045
:1004F300FF90000312080EFEF87401088002C33354
:10050300D8FC0207ED90000412080E146022146058
:100513003914604D2403706090000312080EFFF835
:100523007401088002C333D8FCF452CA52C980480C
:1005330090000312080EFFF87401088002C333D839
:10054300FCFF42CAEFF452C9802E90000312080E3A
:10055300FFF87401088002C333D8FCFFF452CA8049
:100563001490000312080EFFF87401088002C333CD
:10057300D8FCFF42CAEF42C91207F5701D90FE2551
:10058300C083C082E0FF90000312080EFEF87401DE
:10059300088002C333D8FC4F801C90FE25C083C063
:1005A30082E0FF90000312080EFEF8740108800237
:1005B300C333D8FCF45FD082D083F09000011208DB
:1005C3000E701D90FE2DC083C082E0FF90000312C9
:1005D300080EFEF87401088002C333D8FC0207D06A
:1005E30090FE2DC083C082E0FF90000312080EFE30
:1005F300F87401088002C333D8FC0207ED900004AD
:1006030012080E14602214603914604D24037060C4
:1006130090000312080EFFF87401088002C333D858
:10062300FCF452CC52CB804890000312080EFFF822
:100633007401088002C333D8FCFF42CCEFF452CBE1
:10064300802E90000312080EFFF87401088002C385
:1006530033D8FCFFF452CC801490000312080EFF31
:10066300F87401088002C333D8FCFF42CCEF42CBBD
:100673001207F5701D90FE26C083C082E0FF900034
:100683000312080EFEF87401088002C333D8FC4F2E
:10069300801C90FE26C083C082E0FF9000031208F6
:1006A3000EFEF87401088002C333D8FCF45FD082D5
:1006B300D083F090000112080E701D90FE2EC083AF
:1006C300C082E0FF90000312080EFEF87401088058
:1006D30002C333D8FC0207D090FE2EC083C082E051
:1006E300FF90000312080EFEF87401088002C33362
:1006F300D8FC0207ED90000412080E146022146067
:100703003914604D2403706090000312080EFFF843
:100713007401088002C333D8FCF452E252E18048EA
:1007230090000312080EFFF87401088002C333D847
:10073300FCFF42E2EFF452E1802E90000312080E18
:10074300FFF87401088002C333D8FCFFF452E2803F
:100753001490000312080EFFF87401088002C333DB
:10076300D8FCFF42E2EF42E11207F5701D90FE272D
:10077300C083C082E0FF90000312080EFEF87401EC
:10078300088002C333D8FC4F801C90FE27C083C06F
:1007930082E0FF90000312080EFEF8740108800245
:1007A300C333D8FCF45FD082D083F09000011208E9
:1007B3000E701D90FE2FC083C082E0FF90000312D5
:1007C300080EFEF87401088002C333D8FC4F801C66
:1007D30090FE2FC083C082E0FF90000312080EFE3C
:1007E300F87401088002C333D8FCF45FD082D0834D
:0207F300F022F2
:1007F500BB010689828A83E0225002E722BBFE0202
:09080500E32289828A83E4932234
:10080E00BB010CE58229F582E5833AF583E022509F
:10081E0006E92582F8E622BBFE06E92582F8E222E9
:0D082E00E58229F582E5833AF583E4932203
:00000001FF
